{
  "_format": "hh-sol-artifact-1",
  "contractName": "Domains",
  "sourceName": "contracts/Domains.sol",
  "abi": [
    {
      "inputs": [
        {
          "internalType": "string",
          "name": "_tld",
          "type": "string"
        }
      ],
      "stateMutability": "payable",
      "type": "constructor"
    },
    {
      "inputs": [],
      "name": "AlreadyRegistered",
      "type": "error"
    },
    {
      "inputs": [
        {
          "internalType": "string",
          "name": "name",
          "type": "string"
        }
      ],
      "name": "InvalidName",
      "type": "error"
    },
    {
      "inputs": [],
      "name": "Unauthorized",
      "type": "error"
    },
    {
      "anonymous": false,
      "inputs": [
        {
          "indexed": true,
          "internalType": "address",
          "name": "owner",
          "type": "address"
        },
        {
          "indexed": true,
          "internalType": "address",
          "name": "approved",
          "type": "address"
        },
        {
          "indexed": true,
          "internalType": "uint256",
          "name": "tokenId",
          "type": "uint256"
        }
      ],
      "name": "Approval",
      "type": "event"
    },
    {
      "anonymous": false,
      "inputs": [
        {
          "indexed": true,
          "internalType": "address",
          "name": "owner",
          "type": "address"
        },
        {
          "indexed": true,
          "internalType": "address",
          "name": "operator",
          "type": "address"
        },
        {
          "indexed": false,
          "internalType": "bool",
          "name": "approved",
          "type": "bool"
        }
      ],
      "name": "ApprovalForAll",
      "type": "event"
    },
    {
      "anonymous": false,
      "inputs": [
        {
          "indexed": true,
          "internalType": "address",
          "name": "from",
          "type": "address"
        },
        {
          "indexed": true,
          "internalType": "address",
          "name": "to",
          "type": "address"
        },
        {
          "indexed": true,
          "internalType": "uint256",
          "name": "tokenId",
          "type": "uint256"
        }
      ],
      "name": "Transfer",
      "type": "event"
    },
    {
      "inputs": [
        {
          "internalType": "address",
          "name": "to",
          "type": "address"
        },
        {
          "internalType": "uint256",
          "name": "tokenId",
          "type": "uint256"
        }
      ],
      "name": "approve",
      "outputs": [],
      "stateMutability": "nonpayable",
      "type": "function"
    },
    {
      "inputs": [
        {
          "internalType": "address",
          "name": "owner",
          "type": "address"
        }
      ],
      "name": "balanceOf",
      "outputs": [
        {
          "internalType": "uint256",
          "name": "",
          "type": "uint256"
        }
      ],
      "stateMutability": "view",
      "type": "function"
    },
    {
      "inputs": [
        {
          "internalType": "string",
          "name": "",
          "type": "string"
        }
      ],
      "name": "domains",
      "outputs": [
        {
          "internalType": "address",
          "name": "",
          "type": "address"
        }
      ],
      "stateMutability": "view",
      "type": "function"
    },
    {
      "inputs": [],
      "name": "getAllNames",
      "outputs": [
        {
          "internalType": "string[]",
          "name": "",
          "type": "string[]"
        }
      ],
      "stateMutability": "view",
      "type": "function"
    },
    {
      "inputs": [
        {
          "internalType": "uint256",
          "name": "tokenId",
          "type": "uint256"
        }
      ],
      "name": "getApproved",
      "outputs": [
        {
          "internalType": "address",
          "name": "",
          "type": "address"
        }
      ],
      "stateMutability": "view",
      "type": "function"
    },
    {
      "inputs": [
        {
          "internalType": "string",
          "name": "name",
          "type": "string"
        }
      ],
      "name": "getOwner",
      "outputs": [
        {
          "internalType": "address",
          "name": "",
          "type": "address"
        }
      ],
      "stateMutability": "view",
      "type": "function"
    },
    {
      "inputs": [
        {
          "internalType": "string",
          "name": "name",
          "type": "string"
        }
      ],
      "name": "getRecord",
      "outputs": [
        {
          "internalType": "string",
          "name": "",
          "type": "string"
        }
      ],
      "stateMutability": "view",
      "type": "function"
    },
    {
      "inputs": [
        {
          "internalType": "address",
          "name": "owner",
          "type": "address"
        },
        {
          "internalType": "address",
          "name": "operator",
          "type": "address"
        }
      ],
      "name": "isApprovedForAll",
      "outputs": [
        {
          "internalType": "bool",
          "name": "",
          "type": "bool"
        }
      ],
      "stateMutability": "view",
      "type": "function"
    },
    {
      "inputs": [],
      "name": "isOwner",
      "outputs": [
        {
          "internalType": "bool",
          "name": "",
          "type": "bool"
        }
      ],
      "stateMutability": "view",
      "type": "function"
    },
    {
      "inputs": [],
      "name": "name",
      "outputs": [
        {
          "internalType": "string",
          "name": "",
          "type": "string"
        }
      ],
      "stateMutability": "view",
      "type": "function"
    },
    {
      "inputs": [
        {
          "internalType": "uint256",
          "name": "",
          "type": "uint256"
        }
      ],
      "name": "names",
      "outputs": [
        {
          "internalType": "string",
          "name": "",
          "type": "string"
        }
      ],
      "stateMutability": "view",
      "type": "function"
    },
    {
      "inputs": [],
      "name": "owner",
      "outputs": [
        {
          "internalType": "address payable",
          "name": "",
          "type": "address"
        }
      ],
      "stateMutability": "view",
      "type": "function"
    },
    {
      "inputs": [
        {
          "internalType": "uint256",
          "name": "tokenId",
          "type": "uint256"
        }
      ],
      "name": "ownerOf",
      "outputs": [
        {
          "internalType": "address",
          "name": "",
          "type": "address"
        }
      ],
      "stateMutability": "view",
      "type": "function"
    },
    {
      "inputs": [
        {
          "internalType": "string",
          "name": "name",
          "type": "string"
        }
      ],
      "name": "price",
      "outputs": [
        {
          "internalType": "uint256",
          "name": "",
          "type": "uint256"
        }
      ],
      "stateMutability": "pure",
      "type": "function"
    },
    {
      "inputs": [
        {
          "internalType": "string",
          "name": "",
          "type": "string"
        }
      ],
      "name": "records",
      "outputs": [
        {
          "internalType": "string",
          "name": "",
          "type": "string"
        }
      ],
      "stateMutability": "view",
      "type": "function"
    },
    {
      "inputs": [
        {
          "internalType": "string",
          "name": "name",
          "type": "string"
        }
      ],
      "name": "registerDomain",
      "outputs": [],
      "stateMutability": "payable",
      "type": "function"
    },
    {
      "inputs": [
        {
          "internalType": "address",
          "name": "from",
          "type": "address"
        },
        {
          "internalType": "address",
          "name": "to",
          "type": "address"
        },
        {
          "internalType": "uint256",
          "name": "tokenId",
          "type": "uint256"
        }
      ],
      "name": "safeTransferFrom",
      "outputs": [],
      "stateMutability": "nonpayable",
      "type": "function"
    },
    {
      "inputs": [
        {
          "internalType": "address",
          "name": "from",
          "type": "address"
        },
        {
          "internalType": "address",
          "name": "to",
          "type": "address"
        },
        {
          "internalType": "uint256",
          "name": "tokenId",
          "type": "uint256"
        },
        {
          "internalType": "bytes",
          "name": "_data",
          "type": "bytes"
        }
      ],
      "name": "safeTransferFrom",
      "outputs": [],
      "stateMutability": "nonpayable",
      "type": "function"
    },
    {
      "inputs": [
        {
          "internalType": "address",
          "name": "operator",
          "type": "address"
        },
        {
          "internalType": "bool",
          "name": "approved",
          "type": "bool"
        }
      ],
      "name": "setApprovalForAll",
      "outputs": [],
      "stateMutability": "nonpayable",
      "type": "function"
    },
    {
      "inputs": [
        {
          "internalType": "string",
          "name": "name",
          "type": "string"
        },
        {
          "internalType": "string",
          "name": "record",
          "type": "string"
        }
      ],
      "name": "setRecord",
      "outputs": [],
      "stateMutability": "nonpayable",
      "type": "function"
    },
    {
      "inputs": [
        {
          "internalType": "bytes4",
          "name": "interfaceId",
          "type": "bytes4"
        }
      ],
      "name": "supportsInterface",
      "outputs": [
        {
          "internalType": "bool",
          "name": "",
          "type": "bool"
        }
      ],
      "stateMutability": "view",
      "type": "function"
    },
    {
      "inputs": [],
      "name": "symbol",
      "outputs": [
        {
          "internalType": "string",
          "name": "",
          "type": "string"
        }
      ],
      "stateMutability": "view",
      "type": "function"
    },
    {
      "inputs": [],
      "name": "tld",
      "outputs": [
        {
          "internalType": "string",
          "name": "",
          "type": "string"
        }
      ],
      "stateMutability": "view",
      "type": "function"
    },
    {
      "inputs": [
        {
          "internalType": "uint256",
          "name": "tokenId",
          "type": "uint256"
        }
      ],
      "name": "tokenURI",
      "outputs": [
        {
          "internalType": "string",
          "name": "",
          "type": "string"
        }
      ],
      "stateMutability": "view",
      "type": "function"
    },
    {
      "inputs": [
        {
          "internalType": "address",
          "name": "from",
          "type": "address"
        },
        {
          "internalType": "address",
          "name": "to",
          "type": "address"
        },
        {
          "internalType": "uint256",
          "name": "tokenId",
          "type": "uint256"
        }
      ],
      "name": "transferFrom",
      "outputs": [],
      "stateMutability": "nonpayable",
      "type": "function"
    },
    {
      "inputs": [
        {
          "internalType": "string",
          "name": "name",
          "type": "string"
        }
      ],
      "name": "valid",
      "outputs": [
        {
          "internalType": "bool",
          "name": "",
          "type": "bool"
        }
      ],
      "stateMutability": "pure",
      "type": "function"
    },
    {
      "inputs": [],
      "name": "withdraw",
      "outputs": [],
      "stateMutability": "nonpayable",
      "type": "function"
    }
  ],
  "bytecode": "0x608060405260405180610880016040528061084e81526020016200546261084e9139600a908051906020019062000038929190620002c8565b506040518060400160405280600d81526020017f3c2f746578743e3c2f7376673e00000000000000000000000000000000000000815250600b908051906020019062000086929190620002c8565b5060405162005cb038038062005cb08339818101604052810190620000ac919062000515565b6040518060400160405280601181526020017f54656368204e616d6520536572766963650000000000000000000000000000008152506040518060400160405280600381526020017f544e530000000000000000000000000000000000000000000000000000000000815250816000908051906020019062000130929190620002c8565b50806001908051906020019062000149929190620002c8565b50505033600760006101000a81548173ffffffffffffffffffffffffffffffffffffffff021916908373ffffffffffffffffffffffffffffffffffffffff1602179055508060099080519060200190620001a5929190620002c8565b50620001f26040518060400160405280601881526020017f2573206e616d652073657276696365206465706c6f796564000000000000000081525082620001f960201b62001bdf1760201c565b5062000663565b6200029b828260405160240162000212929190620005c3565b6040516020818303038152906040527f4b5c4277000000000000000000000000000000000000000000000000000000007bffffffffffffffffffffffffffffffffffffffffffffffffffffffff19166020820180517bffffffffffffffffffffffffffffffffffffffffffffffffffffffff83818316178352505050506200029f60201b60201c565b5050565b60008151905060006a636f6e736f6c652e6c6f679050602083016000808483855afa5050505050565b828054620002d6906200062d565b90600052602060002090601f016020900481019282620002fa576000855562000346565b82601f106200031557805160ff191683800117855562000346565b8280016001018555821562000346579182015b828111156200034557825182559160200191906001019062000328565b5b50905062000355919062000359565b5090565b5b80821115620003745760008160009055506001016200035a565b5090565b6000604051905090565b600080fd5b600080fd5b600080fd5b600080fd5b6000601f19601f8301169050919050565b7f4e487b7100000000000000000000000000000000000000000000000000000000600052604160045260246000fd5b620003e18262000396565b810181811067ffffffffffffffff82111715620004035762000402620003a7565b5b80604052505050565b60006200041862000378565b9050620004268282620003d6565b919050565b600067ffffffffffffffff821115620004495762000448620003a7565b5b620004548262000396565b9050602081019050919050565b60005b838110156200048157808201518184015260208101905062000464565b8381111562000491576000848401525b50505050565b6000620004ae620004a8846200042b565b6200040c565b905082815260208101848484011115620004cd57620004cc62000391565b5b620004da84828562000461565b509392505050565b600082601f830112620004fa57620004f96200038c565b5b81516200050c84826020860162000497565b91505092915050565b6000602082840312156200052e576200052d62000382565b5b600082015167ffffffffffffffff8111156200054f576200054e62000387565b5b6200055d84828501620004e2565b91505092915050565b600081519050919050565b600082825260208201905092915050565b60006200058f8262000566565b6200059b818562000571565b9350620005ad81856020860162000461565b620005b88162000396565b840191505092915050565b60006040820190508181036000830152620005df818562000582565b90508181036020830152620005f5818462000582565b90509392505050565b7f4e487b7100000000000000000000000000000000000000000000000000000000600052602260045260246000fd5b600060028204905060018216806200064657607f821691505b602082108114156200065d576200065c620005fe565b5b50919050565b614def80620006736000396000f3fe60806040526004361061019c5760003560e01c80636352211e116100ec578063a5cad08a1161008a578063c87b56dd11610064578063c87b56dd14610603578063e985e9c514610640578063fb825e5f1461067d578063fe2c6198146106a85761019c565b8063a5cad08a14610595578063b88d4fde146105b1578063c1880a98146105da5761019c565b80638f32d59b116100c65780638f32d59b146104d957806395d89b41146105045780639791c0971461052f578063a22cb4651461056c5761019c565b80636352211e1461043457806370a08231146104715780638da5cb5b146104ae5761019c565b8063264492351161015957806342842e0e1161013357806342842e0e146103545780634622ab031461037d5780634aaf4a12146103ba578063541e771d146103f75761019c565b806326449235146102d55780632d551432146103125780633ccfd60b1461033d5761019c565b806301ffc9a7146101a157806306fdde03146101de578063081812fc14610209578063095ea7b31461024657806311dd88451461026f57806323b872dd146102ac575b600080fd5b3480156101ad57600080fd5b506101c860048036038101906101c3919061315d565b6106e5565b6040516101d591906131a5565b60405180910390f35b3480156101ea57600080fd5b506101f36107c7565b6040516102009190613259565b60405180910390f35b34801561021557600080fd5b50610230600480360381019061022b91906132b1565b610859565b60405161023d919061331f565b60405180910390f35b34801561025257600080fd5b5061026d60048036038101906102689190613366565b6108de565b005b34801561027b57600080fd5b506102966004803603810190610291919061340b565b6109f6565b6040516102a39190613259565b60405180910390f35b3480156102b857600080fd5b506102d360048036038101906102ce9190613458565b610aa9565b005b3480156102e157600080fd5b506102fc60048036038101906102f791906135db565b610b09565b604051610309919061331f565b60405180910390f35b34801561031e57600080fd5b50610327610b52565b6040516103349190613259565b60405180910390f35b34801561034957600080fd5b50610352610be0565b005b34801561036057600080fd5b5061037b60048036038101906103769190613458565b610ca6565b005b34801561038957600080fd5b506103a4600480360381019061039f91906132b1565b610cc6565b6040516103b19190613259565b60405180910390f35b3480156103c657600080fd5b506103e160048036038101906103dc919061340b565b610d66565b6040516103ee919061331f565b60405180910390f35b34801561040357600080fd5b5061041e600480360381019061041991906135db565b610db1565b60405161042b9190613259565b60405180910390f35b34801561044057600080fd5b5061045b600480360381019061045691906132b1565b610e67565b604051610468919061331f565b60405180910390f35b34801561047d57600080fd5b5061049860048036038101906104939190613624565b610f19565b6040516104a59190613660565b60405180910390f35b3480156104ba57600080fd5b506104c3610fd1565b6040516104d0919061369c565b60405180910390f35b3480156104e557600080fd5b506104ee610ff7565b6040516104fb91906131a5565b60405180910390f35b34801561051057600080fd5b5061051961104f565b6040516105269190613259565b60405180910390f35b34801561053b57600080fd5b506105566004803603810190610551919061340b565b6110e1565b60405161056391906131a5565b60405180910390f35b34801561057857600080fd5b50610593600480360381019061058e91906136e3565b611195565b005b6105af60048036038101906105aa919061340b565b6111ab565b005b3480156105bd57600080fd5b506105d860048036038101906105d391906137c4565b611629565b005b3480156105e657600080fd5b5061060160048036038101906105fc9190613847565b61168b565b005b34801561060f57600080fd5b5061062a600480360381019061062591906132b1565b611766565b6040516106379190613259565b60405180910390f35b34801561064c57600080fd5b50610667600480360381019061066291906138c8565b6118b8565b60405161067491906131a5565b60405180910390f35b34801561068957600080fd5b5061069261194c565b60405161069f9190613a14565b60405180910390f35b3480156106b457600080fd5b506106cf60048036038101906106ca919061340b565b611b3c565b6040516106dc9190613660565b60405180910390f35b60007f80ac58cd000000000000000000000000000000000000000000000000000000007bffffffffffffffffffffffffffffffffffffffffffffffffffffffff1916827bffffffffffffffffffffffffffffffffffffffffffffffffffffffff191614806107b057507f5b5e139f000000000000000000000000000000000000000000000000000000007bffffffffffffffffffffffffffffffffffffffffffffffffffffffff1916827bffffffffffffffffffffffffffffffffffffffffffffffffffffffff1916145b806107c057506107bf82611c7b565b5b9050919050565b6060600080546107d690613a65565b80601f016020809104026020016040519081016040528092919081815260200182805461080290613a65565b801561084f5780601f106108245761010080835404028352916020019161084f565b820191906000526020600020905b81548152906001019060200180831161083257829003601f168201915b5050505050905090565b600061086482611ce5565b6108a3576040517f08c379a000000000000000000000000000000000000000000000000000000000815260040161089a90613b09565b60405180910390fd5b6004600083815260200190815260200160002060009054906101000a900473ffffffffffffffffffffffffffffffffffffffff169050919050565b60006108e982610e67565b90508073ffffffffffffffffffffffffffffffffffffffff168373ffffffffffffffffffffffffffffffffffffffff16141561095a576040517f08c379a000000000000000000000000000000000000000000000000000000000815260040161095190613b9b565b60405180910390fd5b8073ffffffffffffffffffffffffffffffffffffffff16610979611d51565b73ffffffffffffffffffffffffffffffffffffffff1614806109a857506109a7816109a2611d51565b6118b8565b5b6109e7576040517f08c379a00000000000000000000000000000000000000000000000000000000081526004016109de90613c2d565b60405180910390fd5b6109f18383611d59565b505050565b6060600c8383604051610a0a929190613c7d565b90815260200160405180910390208054610a2390613a65565b80601f0160208091040260200160405190810160405280929190818152602001828054610a4f90613a65565b8015610a9c5780601f10610a7157610100808354040283529160200191610a9c565b820191906000526020600020905b815481529060010190602001808311610a7f57829003601f168201915b5050505050905092915050565b610aba610ab4611d51565b82611e12565b610af9576040517f08c379a0000000000000000000000000000000000000000000000000000000008152600401610af090613d08565b60405180910390fd5b610b04838383611ef0565b505050565b600d818051602081018201805184825260208301602085012081835280955050505050506000915054906101000a900473ffffffffffffffffffffffffffffffffffffffff1681565b60098054610b5f90613a65565b80601f0160208091040260200160405190810160405280929190818152602001828054610b8b90613a65565b8015610bd85780601f10610bad57610100808354040283529160200191610bd8565b820191906000526020600020905b815481529060010190602001808311610bbb57829003601f168201915b505050505081565b610be8610ff7565b610bf157600080fd5b600047905060003373ffffffffffffffffffffffffffffffffffffffff1682604051610c1c90613d59565b60006040518083038185875af1925050503d8060008114610c59576040519150601f19603f3d011682016040523d82523d6000602084013e610c5e565b606091505b5050905080610ca2576040517f08c379a0000000000000000000000000000000000000000000000000000000008152600401610c9990613dba565b60405180910390fd5b5050565b610cc183838360405180602001604052806000815250611629565b505050565b600e6020528060005260406000206000915090508054610ce590613a65565b80601f0160208091040260200160405190810160405280929190818152602001828054610d1190613a65565b8015610d5e5780601f10610d3357610100808354040283529160200191610d5e565b820191906000526020600020905b815481529060010190602001808311610d4157829003601f168201915b505050505081565b6000600d8383604051610d7a929190613c7d565b908152602001604051809103902060009054906101000a900473ffffffffffffffffffffffffffffffffffffffff16905092915050565b600c818051602081018201805184825260208301602085012081835280955050505050506000915090508054610de690613a65565b80601f0160208091040260200160405190810160405280929190818152602001828054610e1290613a65565b8015610e5f5780601f10610e3457610100808354040283529160200191610e5f565b820191906000526020600020905b815481529060010190602001808311610e4257829003601f168201915b505050505081565b6000806002600084815260200190815260200160002060009054906101000a900473ffffffffffffffffffffffffffffffffffffffff169050600073ffffffffffffffffffffffffffffffffffffffff168173ffffffffffffffffffffffffffffffffffffffff161415610f10576040517f08c379a0000000000000000000000000000000000000000000000000000000008152600401610f0790613e4c565b60405180910390fd5b80915050919050565b60008073ffffffffffffffffffffffffffffffffffffffff168273ffffffffffffffffffffffffffffffffffffffff161415610f8a576040517f08c379a0000000000000000000000000000000000000000000000000000000008152600401610f8190613ede565b60405180910390fd5b600360008373ffffffffffffffffffffffffffffffffffffffff1673ffffffffffffffffffffffffffffffffffffffff168152602001908152602001600020549050919050565b600760009054906101000a900473ffffffffffffffffffffffffffffffffffffffff1681565b6000600760009054906101000a900473ffffffffffffffffffffffffffffffffffffffff1673ffffffffffffffffffffffffffffffffffffffff163373ffffffffffffffffffffffffffffffffffffffff1614905090565b60606001805461105e90613a65565b80601f016020809104026020016040519081016040528092919081815260200182805461108a90613a65565b80156110d75780601f106110ac576101008083540402835291602001916110d7565b820191906000526020600020905b8154815290600101906020018083116110ba57829003601f168201915b5050505050905090565b6000600361113284848080601f016020809104026020016040519081016040528093929190818152602001838380828437600081840152601f19601f82011690508083019250505050505050612157565b1015801561118d5750600a61118a84848080601f016020809104026020016040519081016040528093929190818152602001838380828437600081840152601f19601f82011690508083019250505050505050612157565b11155b905092915050565b6111a76111a0611d51565b838361230c565b5050565b600073ffffffffffffffffffffffffffffffffffffffff16600d83836040516111d5929190613c7d565b908152602001604051809103902060009054906101000a900473ffffffffffffffffffffffffffffffffffffffff1673ffffffffffffffffffffffffffffffffffffffff1614611251576040517f3a81d6fc00000000000000000000000000000000000000000000000000000000815260040160405180910390fd5b61125b82826110e1565b61129e5781816040517f7f19f48d000000000000000000000000000000000000000000000000000000008152600401611295929190613f2b565b60405180910390fd5b60006112aa8383611b3c565b9050803410156112ef576040517f08c379a00000000000000000000000000000000000000000000000000000000081526004016112e690613fc1565b60405180910390fd5b600083836009604051602001611307939291906140c1565b60405160208183030381529060405290506000600a82600b60405160200161133193929190614123565b6040516020818303038152906040529050600061134e6008612479565b9050600061139f87878080601f016020809104026020016040519081016040528093929190818152602001838380828437600081840152601f19601f82011690508083019250505050505050612157565b905060006113ac82612487565b90508787600e600086815260200190815260200160002091906113d0929190612fc8565b506114c3604051806060016040528060318152602001614d106031913989898080601f016020809104026020016040519081016040528093929190818152602001838380828437600081840152601f19601f820116905080830192505050505050506009805461143f90613a65565b80601f016020809104026020016040519081016040528092919081815260200182805461146b90613a65565b80156114b85780601f1061148d576101008083540402835291602001916114b8565b820191906000526020600020905b81548152906001019060200180831161149b57829003601f168201915b5050505050866125e8565b60006114f9866114d28761268a565b846040516020016114e5939291906142d0565b60405160208183030381529060405261268a565b905060008160405160200161150e9190614379565b6040516020818303038152906040529050611540604051806060016040528060398152602001614cd760399139612822565b61157f6040518060400160405280600e81526020017f46696e616c20746f6b656e55524900000000000000000000000000000000000081525082611bdf565b6115a0604051806060016040528060398152602001614d4160399139612822565b6115aa33866128bb565b6115b485826128d9565b33600d8b8b6040516115c7929190613c7d565b908152602001604051809103902060006101000a81548173ffffffffffffffffffffffffffffffffffffffff021916908373ffffffffffffffffffffffffffffffffffffffff16021790555061161d600861294d565b50505050505050505050565b61163a611634611d51565b83611e12565b611679576040517f08c379a000000000000000000000000000000000000000000000000000000000815260040161167090613d08565b60405180910390fd5b61168584848484612963565b50505050565b600d848460405161169d929190613c7d565b908152602001604051809103902060009054906101000a900473ffffffffffffffffffffffffffffffffffffffff1673ffffffffffffffffffffffffffffffffffffffff163373ffffffffffffffffffffffffffffffffffffffff1614611730576040517f82b4290000000000000000000000000000000000000000000000000000000000815260040160405180910390fd5b8181600c8686604051611744929190613c7d565b9081526020016040518091039020919061175f929190612fc8565b5050505050565b606061177182611ce5565b6117b0576040517f08c379a00000000000000000000000000000000000000000000000000000000081526004016117a79061440d565b60405180910390fd5b60006006600084815260200190815260200160002080546117d090613a65565b80601f01602080910402602001604051908101604052809291908181526020018280546117fc90613a65565b80156118495780601f1061181e57610100808354040283529160200191611849565b820191906000526020600020905b81548152906001019060200180831161182c57829003601f168201915b50505050509050600061185a6129bf565b90506000815114156118705781925050506118b3565b6000825111156118a557808260405160200161188d92919061442d565b604051602081830303815290604052925050506118b3565b6118ae846129d6565b925050505b919050565b6000600560008473ffffffffffffffffffffffffffffffffffffffff1673ffffffffffffffffffffffffffffffffffffffff16815260200190815260200160002060008373ffffffffffffffffffffffffffffffffffffffff1673ffffffffffffffffffffffffffffffffffffffff16815260200190815260200160002060009054906101000a900460ff16905092915050565b606061198c6040518060400160405280601f81526020017f47657474696e6720616c6c206e616d65732066726f6d20636f6e747261637400815250612822565b61199e6119996008612479565b612a7d565b60006119aa6008612479565b67ffffffffffffffff8111156119c3576119c26134b0565b5b6040519080825280602002602001820160405280156119f657816020015b60608152602001906001900390816119e15790505b50905060005b611a066008612479565b811015611b3457600e60008281526020019081526020016000208054611a2b90613a65565b80601f0160208091040260200160405190810160405280929190818152602001828054611a5790613a65565b8015611aa45780601f10611a7957610100808354040283529160200191611aa4565b820191906000526020600020905b815481529060010190602001808311611a8757829003601f168201915b5050505050828281518110611abc57611abb614451565b5b6020026020010181905250611b216040518060400160405280601781526020017f4e616d6520666f7220746f6b656e20256420697320257300000000000000000081525082848481518110611b1457611b13614451565b5b6020026020010151612b16565b8080611b2c906144af565b9150506119fc565b508091505090565b600080611b8c84848080601f016020809104026020016040519081016040528093929190818152602001838380828437600081840152601f19601f82011690508083019250505050505050612157565b905060008111611b9b57600080fd5b6003811415611bb45766b1a2bc2ec50000915050611bd9565b6004811415611bcd57666a94d74f430000915050611bd9565b662386f26fc100009150505b92915050565b611c778282604051602401611bf59291906144f8565b6040516020818303038152906040527f4b5c4277000000000000000000000000000000000000000000000000000000007bffffffffffffffffffffffffffffffffffffffffffffffffffffffff19166020820180517bffffffffffffffffffffffffffffffffffffffffffffffffffffffff8381831617835250505050612bb5565b5050565b60007f01ffc9a7000000000000000000000000000000000000000000000000000000007bffffffffffffffffffffffffffffffffffffffffffffffffffffffff1916827bffffffffffffffffffffffffffffffffffffffffffffffffffffffff1916149050919050565b60008073ffffffffffffffffffffffffffffffffffffffff166002600084815260200190815260200160002060009054906101000a900473ffffffffffffffffffffffffffffffffffffffff1673ffffffffffffffffffffffffffffffffffffffff1614159050919050565b600033905090565b816004600083815260200190815260200160002060006101000a81548173ffffffffffffffffffffffffffffffffffffffff021916908373ffffffffffffffffffffffffffffffffffffffff160217905550808273ffffffffffffffffffffffffffffffffffffffff16611dcc83610e67565b73ffffffffffffffffffffffffffffffffffffffff167f8c5be1e5ebec7d5bd14f71427d1e84f3dd0314c0f7b2291e5b200ac8c7c3b92560405160405180910390a45050565b6000611e1d82611ce5565b611e5c576040517f08c379a0000000000000000000000000000000000000000000000000000000008152600401611e53906145a1565b60405180910390fd5b6000611e6783610e67565b90508073ffffffffffffffffffffffffffffffffffffffff168473ffffffffffffffffffffffffffffffffffffffff161480611ed657508373ffffffffffffffffffffffffffffffffffffffff16611ebe84610859565b73ffffffffffffffffffffffffffffffffffffffff16145b80611ee75750611ee681856118b8565b5b91505092915050565b8273ffffffffffffffffffffffffffffffffffffffff16611f1082610e67565b73ffffffffffffffffffffffffffffffffffffffff1614611f66576040517f08c379a0000000000000000000000000000000000000000000000000000000008152600401611f5d90614633565b60405180910390fd5b600073ffffffffffffffffffffffffffffffffffffffff168273ffffffffffffffffffffffffffffffffffffffff161415611fd6576040517f08c379a0000000000000000000000000000000000000000000000000000000008152600401611fcd906146c5565b60405180910390fd5b611fe1838383612bde565b611fec600082611d59565b6001600360008573ffffffffffffffffffffffffffffffffffffffff1673ffffffffffffffffffffffffffffffffffffffff168152602001908152602001600020600082825461203c91906146e5565b925050819055506001600360008473ffffffffffffffffffffffffffffffffffffffff1673ffffffffffffffffffffffffffffffffffffffff16815260200190815260200160002060008282546120939190614719565b92505081905550816002600083815260200190815260200160002060006101000a81548173ffffffffffffffffffffffffffffffffffffffff021916908373ffffffffffffffffffffffffffffffffffffffff160217905550808273ffffffffffffffffffffffffffffffffffffffff168473ffffffffffffffffffffffffffffffffffffffff167fddf252ad1be2c89b69c2b068fc378daa952ba7f163c4a11628f55a4df523b3ef60405160405180910390a4612152838383612be3565b505050565b60008060008084519050600092505b8082101561230157600085838151811061218357612182614451565b5b602001015160f81c60f81b9050608060f81b817effffffffffffffffffffffffffffffffffffffffffffffffffffffffffffff191610156121d2576001836121cb9190614719565b92506122ed565b60e060f81b817effffffffffffffffffffffffffffffffffffffffffffffffffffffffffffff191610156122145760028361220d9190614719565b92506122ec565b60f060f81b817effffffffffffffffffffffffffffffffffffffffffffffffffffffffffffff191610156122565760038361224f9190614719565b92506122eb565b60f8801b817effffffffffffffffffffffffffffffffffffffffffffffffffffffffffffff19161015612297576004836122909190614719565b92506122ea565b60fc60f81b817effffffffffffffffffffffffffffffffffffffffffffffffffffffffffffff191610156122d9576005836122d29190614719565b92506122e9565b6006836122e69190614719565b92505b5b5b5b5b5082806122f9906144af565b935050612166565b829350505050919050565b8173ffffffffffffffffffffffffffffffffffffffff168373ffffffffffffffffffffffffffffffffffffffff16141561237b576040517f08c379a0000000000000000000000000000000000000000000000000000000008152600401612372906147bb565b60405180910390fd5b80600560008573ffffffffffffffffffffffffffffffffffffffff1673ffffffffffffffffffffffffffffffffffffffff16815260200190815260200160002060008473ffffffffffffffffffffffffffffffffffffffff1673ffffffffffffffffffffffffffffffffffffffff16815260200190815260200160002060006101000a81548160ff0219169083151502179055508173ffffffffffffffffffffffffffffffffffffffff168373ffffffffffffffffffffffffffffffffffffffff167f17307eab39ab6107e8899845ad3d59bd9653f200f220920489ca2b5937696c318360405161246c91906131a5565b60405180910390a3505050565b600081600001549050919050565b606060008214156124cf576040518060400160405280600181526020017f300000000000000000000000000000000000000000000000000000000000000081525090506125e3565b600082905060005b600082146125015780806124ea906144af565b915050600a826124fa919061480a565b91506124d7565b60008167ffffffffffffffff81111561251d5761251c6134b0565b5b6040519080825280601f01601f19166020018201604052801561254f5781602001600182028036833780820191505090505b5090505b600085146125dc5760018261256891906146e5565b9150600a85612577919061483b565b60306125839190614719565b60f81b81838151811061259957612598614451565b5b60200101907effffffffffffffffffffffffffffffffffffffffffffffffffffffffffffff1916908160001a905350600a856125d5919061480a565b9450612553565b8093505050505b919050565b61268484848484604051602401612602949392919061486c565b6040516020818303038152906040527f9fd009f5000000000000000000000000000000000000000000000000000000007bffffffffffffffffffffffffffffffffffffffffffffffffffffffff19166020820180517bffffffffffffffffffffffffffffffffffffffffffffffffffffffff8381831617835250505050612bb5565b50505050565b606060008251905060008114156126b3576040518060200160405280600081525091505061281d565b600060036002836126c49190614719565b6126ce919061480a565b60046126da91906148c6565b905060006020826126eb9190614719565b67ffffffffffffffff811115612704576127036134b0565b5b6040519080825280601f01601f1916602001820160405280156127365781602001600182028036833780820191505090505b5090506000604051806060016040528060408152602001614d7a604091399050600181016020830160005b868110156127da5760038101905062ffffff818a015116603f8160121c168401518060081b905060ff603f83600c1c1686015116810190508060081b905060ff603f8360061c1686015116810190508060081b905060ff603f831686015116810190508060e01b90508084526004840193505050612761565b5060038606600181146127f457600281146128045761280f565b613d3d60f01b600283035261280f565b603d60f81b60018303525b508484525050819450505050505b919050565b6128b8816040516024016128369190613259565b6040516020818303038152906040527f41304fac000000000000000000000000000000000000000000000000000000007bffffffffffffffffffffffffffffffffffffffffffffffffffffffff19166020820180517bffffffffffffffffffffffffffffffffffffffffffffffffffffffff8381831617835250505050612bb5565b50565b6128d5828260405180602001604052806000815250612be8565b5050565b6128e282611ce5565b612921576040517f08c379a000000000000000000000000000000000000000000000000000000000815260040161291890614992565b60405180910390fd5b8060066000848152602001908152602001600020908051906020019061294892919061304e565b505050565b6001816000016000828254019250508190555050565b61296e848484611ef0565b61297a84848484612c43565b6129b9576040517f08c379a00000000000000000000000000000000000000000000000000000000081526004016129b090614a24565b60405180910390fd5b50505050565b606060405180602001604052806000815250905090565b60606129e182611ce5565b612a20576040517f08c379a0000000000000000000000000000000000000000000000000000000008152600401612a1790614ab6565b60405180910390fd5b6000612a2a6129bf565b90506000815111612a4a5760405180602001604052806000815250612a75565b80612a5484612487565b604051602001612a6592919061442d565b6040516020818303038152906040525b915050919050565b612b1381604051602401612a919190613660565b6040516020818303038152906040527ff5b1bba9000000000000000000000000000000000000000000000000000000007bffffffffffffffffffffffffffffffffffffffffffffffffffffffff19166020820180517bffffffffffffffffffffffffffffffffffffffffffffffffffffffff8381831617835250505050612bb5565b50565b612bb0838383604051602401612b2e93929190614ad6565b6040516020818303038152906040527fa3f5c739000000000000000000000000000000000000000000000000000000007bffffffffffffffffffffffffffffffffffffffffffffffffffffffff19166020820180517bffffffffffffffffffffffffffffffffffffffffffffffffffffffff8381831617835250505050612bb5565b505050565b60008151905060006a636f6e736f6c652e6c6f679050602083016000808483855afa5050505050565b505050565b505050565b612bf28383612dcb565b612bff6000848484612c43565b612c3e576040517f08c379a0000000000000000000000000000000000000000000000000000000008152600401612c3590614a24565b60405180910390fd5b505050565b6000612c648473ffffffffffffffffffffffffffffffffffffffff16612fa5565b15612dbe578373ffffffffffffffffffffffffffffffffffffffff1663150b7a02612c8d611d51565b8786866040518563ffffffff1660e01b8152600401612caf9493929190614b70565b6020604051808303816000875af1925050508015612ceb57506040513d601f19601f82011682018060405250810190612ce89190614bd1565b60015b612d6e573d8060008114612d1b576040519150601f19603f3d011682016040523d82523d6000602084013e612d20565b606091505b50600081511415612d66576040517f08c379a0000000000000000000000000000000000000000000000000000000008152600401612d5d90614a24565b60405180910390fd5b805181602001fd5b63150b7a0260e01b7bffffffffffffffffffffffffffffffffffffffffffffffffffffffff1916817bffffffffffffffffffffffffffffffffffffffffffffffffffffffff191614915050612dc3565b600190505b949350505050565b600073ffffffffffffffffffffffffffffffffffffffff168273ffffffffffffffffffffffffffffffffffffffff161415612e3b576040517f08c379a0000000000000000000000000000000000000000000000000000000008152600401612e3290614c4a565b60405180910390fd5b612e4481611ce5565b15612e84576040517f08c379a0000000000000000000000000000000000000000000000000000000008152600401612e7b90614cb6565b60405180910390fd5b612e9060008383612bde565b6001600360008473ffffffffffffffffffffffffffffffffffffffff1673ffffffffffffffffffffffffffffffffffffffff1681526020019081526020016000206000828254612ee09190614719565b92505081905550816002600083815260200190815260200160002060006101000a81548173ffffffffffffffffffffffffffffffffffffffff021916908373ffffffffffffffffffffffffffffffffffffffff160217905550808273ffffffffffffffffffffffffffffffffffffffff16600073ffffffffffffffffffffffffffffffffffffffff167fddf252ad1be2c89b69c2b068fc378daa952ba7f163c4a11628f55a4df523b3ef60405160405180910390a4612fa160008383612be3565b5050565b6000808273ffffffffffffffffffffffffffffffffffffffff163b119050919050565b828054612fd490613a65565b90600052602060002090601f016020900481019282612ff6576000855561303d565b82601f1061300f57803560ff191683800117855561303d565b8280016001018555821561303d579182015b8281111561303c578235825591602001919060010190613021565b5b50905061304a91906130d4565b5090565b82805461305a90613a65565b90600052602060002090601f01602090048101928261307c57600085556130c3565b82601f1061309557805160ff19168380011785556130c3565b828001600101855582156130c3579182015b828111156130c25782518255916020019190600101906130a7565b5b5090506130d091906130d4565b5090565b5b808211156130ed5760008160009055506001016130d5565b5090565b6000604051905090565b600080fd5b600080fd5b60007fffffffff0000000000000000000000000000000000000000000000000000000082169050919050565b61313a81613105565b811461314557600080fd5b50565b60008135905061315781613131565b92915050565b600060208284031215613173576131726130fb565b5b600061318184828501613148565b91505092915050565b60008115159050919050565b61319f8161318a565b82525050565b60006020820190506131ba6000830184613196565b92915050565b600081519050919050565b600082825260208201905092915050565b60005b838110156131fa5780820151818401526020810190506131df565b83811115613209576000848401525b50505050565b6000601f19601f8301169050919050565b600061322b826131c0565b61323581856131cb565b93506132458185602086016131dc565b61324e8161320f565b840191505092915050565b600060208201905081810360008301526132738184613220565b905092915050565b6000819050919050565b61328e8161327b565b811461329957600080fd5b50565b6000813590506132ab81613285565b92915050565b6000602082840312156132c7576132c66130fb565b5b60006132d58482850161329c565b91505092915050565b600073ffffffffffffffffffffffffffffffffffffffff82169050919050565b6000613309826132de565b9050919050565b613319816132fe565b82525050565b60006020820190506133346000830184613310565b92915050565b613343816132fe565b811461334e57600080fd5b50565b6000813590506133608161333a565b92915050565b6000806040838503121561337d5761337c6130fb565b5b600061338b85828601613351565b925050602061339c8582860161329c565b9150509250929050565b600080fd5b600080fd5b600080fd5b60008083601f8401126133cb576133ca6133a6565b5b8235905067ffffffffffffffff8111156133e8576133e76133ab565b5b602083019150836001820283011115613404576134036133b0565b5b9250929050565b60008060208385031215613422576134216130fb565b5b600083013567ffffffffffffffff8111156134405761343f613100565b5b61344c858286016133b5565b92509250509250929050565b600080600060608486031215613471576134706130fb565b5b600061347f86828701613351565b935050602061349086828701613351565b92505060406134a18682870161329c565b9150509250925092565b600080fd5b7f4e487b7100000000000000000000000000000000000000000000000000000000600052604160045260246000fd5b6134e88261320f565b810181811067ffffffffffffffff82111715613507576135066134b0565b5b80604052505050565b600061351a6130f1565b905061352682826134df565b919050565b600067ffffffffffffffff821115613546576135456134b0565b5b61354f8261320f565b9050602081019050919050565b82818337600083830152505050565b600061357e6135798461352b565b613510565b90508281526020810184848401111561359a576135996134ab565b5b6135a584828561355c565b509392505050565b600082601f8301126135c2576135c16133a6565b5b81356135d284826020860161356b565b91505092915050565b6000602082840312156135f1576135f06130fb565b5b600082013567ffffffffffffffff81111561360f5761360e613100565b5b61361b848285016135ad565b91505092915050565b60006020828403121561363a576136396130fb565b5b600061364884828501613351565b91505092915050565b61365a8161327b565b82525050565b60006020820190506136756000830184613651565b92915050565b6000613686826132de565b9050919050565b6136968161367b565b82525050565b60006020820190506136b1600083018461368d565b92915050565b6136c08161318a565b81146136cb57600080fd5b50565b6000813590506136dd816136b7565b92915050565b600080604083850312156136fa576136f96130fb565b5b600061370885828601613351565b9250506020613719858286016136ce565b9150509250929050565b600067ffffffffffffffff82111561373e5761373d6134b0565b5b6137478261320f565b9050602081019050919050565b600061376761376284613723565b613510565b905082815260208101848484011115613783576137826134ab565b5b61378e84828561355c565b509392505050565b600082601f8301126137ab576137aa6133a6565b5b81356137bb848260208601613754565b91505092915050565b600080600080608085870312156137de576137dd6130fb565b5b60006137ec87828801613351565b94505060206137fd87828801613351565b935050604061380e8782880161329c565b925050606085013567ffffffffffffffff81111561382f5761382e613100565b5b61383b87828801613796565b91505092959194509250565b60008060008060408587031215613861576138606130fb565b5b600085013567ffffffffffffffff81111561387f5761387e613100565b5b61388b878288016133b5565b9450945050602085013567ffffffffffffffff8111156138ae576138ad613100565b5b6138ba878288016133b5565b925092505092959194509250565b600080604083850312156138df576138de6130fb565b5b60006138ed85828601613351565b92505060206138fe85828601613351565b9150509250929050565b600081519050919050565b600082825260208201905092915050565b6000819050602082019050919050565b600082825260208201905092915050565b6000613950826131c0565b61395a8185613934565b935061396a8185602086016131dc565b6139738161320f565b840191505092915050565b600061398a8383613945565b905092915050565b6000602082019050919050565b60006139aa82613908565b6139b48185613913565b9350836020820285016139c685613924565b8060005b85811015613a0257848403895281516139e3858261397e565b94506139ee83613992565b925060208a019950506001810190506139ca565b50829750879550505050505092915050565b60006020820190508181036000830152613a2e818461399f565b905092915050565b7f4e487b7100000000000000000000000000000000000000000000000000000000600052602260045260246000fd5b60006002820490506001821680613a7d57607f821691505b60208210811415613a9157613a90613a36565b5b50919050565b7f4552433732313a20617070726f76656420717565727920666f72206e6f6e657860008201527f697374656e7420746f6b656e0000000000000000000000000000000000000000602082015250565b6000613af3602c836131cb565b9150613afe82613a97565b604082019050919050565b60006020820190508181036000830152613b2281613ae6565b9050919050565b7f4552433732313a20617070726f76616c20746f2063757272656e74206f776e6560008201527f7200000000000000000000000000000000000000000000000000000000000000602082015250565b6000613b856021836131cb565b9150613b9082613b29565b604082019050919050565b60006020820190508181036000830152613bb481613b78565b9050919050565b7f4552433732313a20617070726f76652063616c6c6572206973206e6f74206f7760008201527f6e6572206e6f7220617070726f76656420666f7220616c6c0000000000000000602082015250565b6000613c176038836131cb565b9150613c2282613bbb565b604082019050919050565b60006020820190508181036000830152613c4681613c0a565b9050919050565b600081905092915050565b6000613c648385613c4d565b9350613c7183858461355c565b82840190509392505050565b6000613c8a828486613c58565b91508190509392505050565b7f4552433732313a207472616e736665722063616c6c6572206973206e6f74206f60008201527f776e6572206e6f7220617070726f766564000000000000000000000000000000602082015250565b6000613cf26031836131cb565b9150613cfd82613c96565b604082019050919050565b60006020820190508181036000830152613d2181613ce5565b9050919050565b600081905092915050565b50565b6000613d43600083613d28565b9150613d4e82613d33565b600082019050919050565b6000613d6482613d36565b9150819050919050565b7f4661696c656420746f207769746864726177204d415449430000000000000000600082015250565b6000613da46018836131cb565b9150613daf82613d6e565b602082019050919050565b60006020820190508181036000830152613dd381613d97565b9050919050565b7f4552433732313a206f776e657220717565727920666f72206e6f6e657869737460008201527f656e7420746f6b656e0000000000000000000000000000000000000000000000602082015250565b6000613e366029836131cb565b9150613e4182613dda565b604082019050919050565b60006020820190508181036000830152613e6581613e29565b9050919050565b7f4552433732313a2062616c616e636520717565727920666f7220746865207a6560008201527f726f206164647265737300000000000000000000000000000000000000000000602082015250565b6000613ec8602a836131cb565b9150613ed382613e6c565b604082019050919050565b60006020820190508181036000830152613ef781613ebb565b9050919050565b6000613f0a83856131cb565b9350613f1783858461355c565b613f208361320f565b840190509392505050565b60006020820190508181036000830152613f46818486613efe565b90509392505050565b7f4e6f7420656e6f756768204d6174696320666f7220646f6d61696e207265676960008201527f7374726174696f6e000000000000000000000000000000000000000000000000602082015250565b6000613fab6028836131cb565b9150613fb682613f4f565b604082019050919050565b60006020820190508181036000830152613fda81613f9e565b9050919050565b7f2e00000000000000000000000000000000000000000000000000000000000000600082015250565b6000614017600183613c4d565b915061402282613fe1565b600182019050919050565b60008190508160005260206000209050919050565b6000815461404f81613a65565b6140598186613c4d565b945060018216600081146140745760018114614085576140b8565b60ff198316865281860193506140b8565b61408e8561402d565b60005b838110156140b057815481890152600182019150602081019050614091565b838801955050505b50505092915050565b60006140ce828587613c58565b91506140d98261400a565b91506140e58284614042565b9150819050949350505050565b60006140fd826131c0565b6141078185613c4d565b93506141178185602086016131dc565b80840191505092915050565b600061412f8286614042565b915061413b82856140f2565b91506141478284614042565b9150819050949350505050565b7f7b226e616d65223a202200000000000000000000000000000000000000000000600082015250565b600061418a600a83613c4d565b915061419582614154565b600a82019050919050565b7f222c20226465736372697074696f6e223a20224120646f6d61696e206f6e207460008201527f68652054656368206e616d652073657276696365222c2022696d616765223a2060208201527f22646174613a696d6167652f7376672b786d6c3b6261736536342c0000000000604082015250565b6000614222605b83613c4d565b915061422d826141a0565b605b82019050919050565b7f222c226c656e677468223a220000000000000000000000000000000000000000600082015250565b600061426e600c83613c4d565b915061427982614238565b600c82019050919050565b7f227d000000000000000000000000000000000000000000000000000000000000600082015250565b60006142ba600283613c4d565b91506142c582614284565b600282019050919050565b60006142db8261417d565b91506142e782866140f2565b91506142f282614215565b91506142fe82856140f2565b915061430982614261565b915061431582846140f2565b9150614320826142ad565b9150819050949350505050565b7f646174613a6170706c69636174696f6e2f6a736f6e3b6261736536342c000000600082015250565b6000614363601d83613c4d565b915061436e8261432d565b601d82019050919050565b600061438482614356565b915061439082846140f2565b915081905092915050565b7f45524337323155524953746f726167653a2055524920717565727920666f722060008201527f6e6f6e6578697374656e7420746f6b656e000000000000000000000000000000602082015250565b60006143f76031836131cb565b91506144028261439b565b604082019050919050565b60006020820190508181036000830152614426816143ea565b9050919050565b600061443982856140f2565b915061444582846140f2565b91508190509392505050565b7f4e487b7100000000000000000000000000000000000000000000000000000000600052603260045260246000fd5b7f4e487b7100000000000000000000000000000000000000000000000000000000600052601160045260246000fd5b60006144ba8261327b565b91507fffffffffffffffffffffffffffffffffffffffffffffffffffffffffffffffff8214156144ed576144ec614480565b5b600182019050919050565b600060408201905081810360008301526145128185613220565b905081810360208301526145268184613220565b90509392505050565b7f4552433732313a206f70657261746f7220717565727920666f72206e6f6e657860008201527f697374656e7420746f6b656e0000000000000000000000000000000000000000602082015250565b600061458b602c836131cb565b91506145968261452f565b604082019050919050565b600060208201905081810360008301526145ba8161457e565b9050919050565b7f4552433732313a207472616e736665722066726f6d20696e636f72726563742060008201527f6f776e6572000000000000000000000000000000000000000000000000000000602082015250565b600061461d6025836131cb565b9150614628826145c1565b604082019050919050565b6000602082019050818103600083015261464c81614610565b9050919050565b7f4552433732313a207472616e7366657220746f20746865207a65726f2061646460008201527f7265737300000000000000000000000000000000000000000000000000000000602082015250565b60006146af6024836131cb565b91506146ba82614653565b604082019050919050565b600060208201905081810360008301526146de816146a2565b9050919050565b60006146f08261327b565b91506146fb8361327b565b92508282101561470e5761470d614480565b5b828203905092915050565b60006147248261327b565b915061472f8361327b565b9250827fffffffffffffffffffffffffffffffffffffffffffffffffffffffffffffffff0382111561476457614763614480565b5b828201905092915050565b7f4552433732313a20617070726f766520746f2063616c6c657200000000000000600082015250565b60006147a56019836131cb565b91506147b08261476f565b602082019050919050565b600060208201905081810360008301526147d481614798565b9050919050565b7f4e487b7100000000000000000000000000000000000000000000000000000000600052601260045260246000fd5b60006148158261327b565b91506148208361327b565b9250826148305761482f6147db565b5b828204905092915050565b60006148468261327b565b91506148518361327b565b925082614861576148606147db565b5b828206905092915050565b600060808201905081810360008301526148868187613220565b9050818103602083015261489a8186613220565b905081810360408301526148ae8185613220565b90506148bd6060830184613651565b95945050505050565b60006148d18261327b565b91506148dc8361327b565b9250817fffffffffffffffffffffffffffffffffffffffffffffffffffffffffffffffff048311821515161561491557614914614480565b5b828202905092915050565b7f45524337323155524953746f726167653a2055524920736574206f66206e6f6e60008201527f6578697374656e7420746f6b656e000000000000000000000000000000000000602082015250565b600061497c602e836131cb565b915061498782614920565b604082019050919050565b600060208201905081810360008301526149ab8161496f565b9050919050565b7f4552433732313a207472616e7366657220746f206e6f6e20455243373231526560008201527f63656976657220696d706c656d656e7465720000000000000000000000000000602082015250565b6000614a0e6032836131cb565b9150614a19826149b2565b604082019050919050565b60006020820190508181036000830152614a3d81614a01565b9050919050565b7f4552433732314d657461646174613a2055524920717565727920666f72206e6f60008201527f6e6578697374656e7420746f6b656e0000000000000000000000000000000000602082015250565b6000614aa0602f836131cb565b9150614aab82614a44565b604082019050919050565b60006020820190508181036000830152614acf81614a93565b9050919050565b60006060820190508181036000830152614af08186613220565b9050614aff6020830185613651565b8181036040830152614b118184613220565b9050949350505050565b600081519050919050565b600082825260208201905092915050565b6000614b4282614b1b565b614b4c8185614b26565b9350614b5c8185602086016131dc565b614b658161320f565b840191505092915050565b6000608082019050614b856000830187613310565b614b926020830186613310565b614b9f6040830185613651565b8181036060830152614bb18184614b37565b905095945050505050565b600081519050614bcb81613131565b92915050565b600060208284031215614be757614be66130fb565b5b6000614bf584828501614bbc565b91505092915050565b7f4552433732313a206d696e7420746f20746865207a65726f2061646472657373600082015250565b6000614c346020836131cb565b9150614c3f82614bfe565b602082019050919050565b60006020820190508181036000830152614c6381614c27565b9050919050565b7f4552433732313a20746f6b656e20616c7265616479206d696e74656400000000600082015250565b6000614ca0601c836131cb565b9150614cab82614c6a565b602082019050919050565b60006020820190508181036000830152614ccf81614c93565b905091905056fe0a2d2d2d2d2d2d2d2d2d2d2d2d2d2d2d2d2d2d2d2d2d2d2d2d2d2d2d2d2d2d2d2d2d2d2d2d2d2d2d2d2d2d2d2d2d2d2d2d2d2d2d2d2d2d2d2d5265676973746572696e672025732e2573206f6e2074686520636f6e7472616374207769746820746f6b656e49442025642d2d2d2d2d2d2d2d2d2d2d2d2d2d2d2d2d2d2d2d2d2d2d2d2d2d2d2d2d2d2d2d2d2d2d2d2d2d2d2d2d2d2d2d2d2d2d2d2d2d2d2d2d2d2d2d0a4142434445464748494a4b4c4d4e4f505152535455565758595a6162636465666768696a6b6c6d6e6f707172737475767778797a303132333435363738392b2fa26469706673582212209918fc44f95737a4f8356c9dad8ee0246bff4eb75a8171117b24a272b288bdd364736f6c634300080a00333c73766720786d6c6e733d22687474703a2f2f7777772e77332e6f72672f323030302f737667222077696474683d2232373022206865696768743d22323730222066696c6c3d226e6f6e65223e3c706174682066696c6c3d2275726c282342292220643d224d302030683237307632373048307a222f3e3c646566733e3c66696c7465722069643d22412220636f6c6f722d696e746572706f6c6174696f6e2d66696c746572733d2273524742222066696c746572556e6974733d227573657253706163654f6e55736522206865696768743d22323730222077696474683d22323730223e3c666544726f70536861646f772064783d2230222064793d22312220737464446576696174696f6e3d22322220666c6f6f642d6f7061636974793d222e323235222077696474683d223230302522206865696768743d2232303025222f3e3c2f66696c7465723e3c2f646566733e3c7061746820643d224d37322e3836332034322e393439632d2e3636382d2e3338372d312e3432362d2e35392d322e3139372d2e3539732d312e3532392e3230342d322e3139372e35396c2d31302e30383120362e3033322d362e383520332e3933342d31302e30383120362e303332632d2e3636382e3338372d312e3432362e35392d322e3139372e3539732d312e3532392d2e3230342d322e3139372d2e35396c2d382e3031332d342e37323161342e353220342e35322030203020312d312e3538392d312e363136632d2e3338342d2e3636352d2e3539342d312e3431382d2e3630382d322e313837762d392e3331632d2e3031332d2e3737352e3138352d312e3533382e3537322d322e32303861342e323520342e323520302030203120312e3632352d312e3539356c372e3838342d342e3539632e3636382d2e33383720312e3432362d2e353920322e3139372d2e353973312e3532392e32303420322e3139372e35396c372e38383420342e353961342e353220342e353220302030203120312e35383920312e363136632e3338342e3636352e35393420312e3431382e36303820322e31383776362e3033326c362e38352d342e303635762d362e303332632e3031332d2e3737352d2e3138352d312e3533382d2e3537322d322e32303861342e323520342e32352030203020302d312e3632352d312e3539354c34312e3435362032342e3539632d2e3636382d2e3338372d312e3432362d2e35392d322e3139372d2e3539732d312e3532392e3230342d322e3139372e35396c2d31342e38363420382e36353561342e323520342e32352030203020302d312e36323520312e353935632d2e3338372e36372d2e35383520312e3433342d2e35373220322e3230387631372e343431632d2e3031332e3737352e31383520312e3533382e35373220322e32303861342e323520342e323520302030203020312e36323520312e3539356c31342e38363420382e363535632e3636382e33383720312e3432362e353920322e3139372e353973312e3532392d2e32303420322e3139372d2e35396c31302e3038312d352e39303120362e38352d342e3036352031302e3038312d352e393031632e3636382d2e33383720312e3432362d2e353920322e3139372d2e353973312e3532392e32303420322e3139372e35396c372e38383420342e353961342e353220342e353220302030203120312e35383920312e363136632e3338342e3636352e35393420312e3431382e36303820322e31383776392e333131632e3031332e3737352d2e31383520312e3533382d2e35373220322e32303861342e323520342e32352030203020312d312e36323520312e3539356c2d372e38383420342e373231632d2e3636382e3338372d312e3432362e35392d322e3139372e3539732d312e3532392d2e3230342d322e3139372d2e35396c2d372e3838342d342e353961342e353220342e35322030203020312d312e3538392d312e363136632d2e3338352d2e3636352d2e3539342d312e3431382d2e3630382d322e313837762d362e3033326c2d362e383520342e30363576362e303332632d2e3031332e3737352e31383520312e3533382e35373220322e32303861342e323520342e323520302030203020312e36323520312e3539356c31342e38363420382e363535632e3636382e33383720312e3432362e353920322e3139372e353973312e3532392d2e32303420322e3139372d2e35396c31342e3836342d382e363535632e3635372d2e33393420312e3230342d2e393520312e3538392d312e363136732e3539342d312e3431382e3630392d322e3138375635352e353338632e3031332d2e3737352d2e3138352d312e3533382d2e3537322d322e32303861342e323520342e32352030203020302d312e3632352d312e3539356c2d31342e3939332d382e3738367a222066696c6c3d2223666666222f3e3c646566733e3c6c696e6561724772616469656e742069643d2242222078313d2230222079313d2230222078323d22323730222079323d2232373022206772616469656e74556e6974733d227573657253706163654f6e557365223e3c73746f702073746f702d636f6c6f723d2223363446463543222f3e3c73746f70206f66667365743d2231222073746f702d636f6c6f723d2223414446384646222073746f702d6f7061636974793d222e3939222f3e3c2f6c696e6561724772616469656e743e3c2f646566733e3c7465787420783d2235302220793d223233312220666f6e742d73697a653d223237222066696c6c3d2223303131343030222066696c7465723d2275726c282341292220666f6e742d66616d696c793d224e6f746f20436f6c6f7220456d6f6a692c4170706c6520436f6c6f7220456d6f6a692c73616e732d73657269662220666f6e742d7765696768743d22626f6c64223e",
  "linkReferences": {},
  "deployedLinkReferences": {}
}